{
  "_format": "hh-sol-artifact-1",
  "contractName": "PatientGeneralInfo",
  "sourceName": "contracts/PatientGeneralInfo.sol",
  "abi": [
    {
      "inputs": [
        {
          "internalType": "string",
          "name": "documentHash",
          "type": "string"
        }
      ],
      "name": "getPatientProfile",
      "outputs": [
        {
          "internalType": "string",
          "name": "",
          "type": "string"
        },
        {
          "internalType": "address",
          "name": "",
          "type": "address"
        }
      ],
      "stateMutability": "view",
      "type": "function"
    },
    {
      "inputs": [
        {
          "internalType": "string",
          "name": "",
          "type": "string"
        }
      ],
      "name": "profiles",
      "outputs": [
        {
          "internalType": "string",
          "name": "documentHash",
          "type": "string"
        },
        {
          "internalType": "address",
          "name": "userAddress",
          "type": "address"
        }
      ],
      "stateMutability": "view",
      "type": "function"
    },
    {
      "inputs": [
        {
          "internalType": "string",
          "name": "documentHash",
          "type": "string"
        },
        {
          "internalType": "address",
          "name": "userAddress",
          "type": "address"
        }
      ],
      "name": "storePatientProfile",
      "outputs": [],
      "stateMutability": "nonpayable",
      "type": "function"
    }
  ],
  "bytecode": "0x6080604052348015600f57600080fd5b50610a0b8061001f6000396000f3fe608060405234801561001057600080fd5b50600436106100415760003560e01c8063877dcc3014610046578063cba521e214610062578063e47277e114610093575b600080fd5b610060600480360381019061005b9190610537565b6100c4565b005b61007c60048036038101906100779190610593565b610171565b60405161008a92919061066a565b60405180910390f35b6100ad60048036038101906100a89190610593565b610253565b6040516100bb92919061066a565b60405180910390f35b60405180604001604052808381526020018273ffffffffffffffffffffffffffffffffffffffff168152506000836040516100ff91906106d6565b908152602001604051809103902060008201518160000190816101229190610903565b5060208201518160010160006101000a81548173ffffffffffffffffffffffffffffffffffffffff021916908373ffffffffffffffffffffffffffffffffffffffff1602179055509050505050565b6000818051602081018201805184825260208301602085012081835280955050505050506000915090508060000180546101aa9061071c565b80601f01602080910402602001604051908101604052809291908181526020018280546101d69061071c565b80156102235780601f106101f857610100808354040283529160200191610223565b820191906000526020600020905b81548152906001019060200180831161020657829003601f168201915b5050505050908060010160009054906101000a900473ffffffffffffffffffffffffffffffffffffffff16905082565b606060008060008460405161026891906106d6565b90815260200160405180910390206040518060400160405290816000820180546102919061071c565b80601f01602080910402602001604051908101604052809291908181526020018280546102bd9061071c565b801561030a5780601f106102df5761010080835404028352916020019161030a565b820191906000526020600020905b8154815290600101906020018083116102ed57829003601f168201915b505050505081526020016001820160009054906101000a900473ffffffffffffffffffffffffffffffffffffffff1673ffffffffffffffffffffffffffffffffffffffff1673ffffffffffffffffffffffffffffffffffffffff16815250509050806000015181602001519250925050915091565b6000604051905090565b600080fd5b600080fd5b600080fd5b600080fd5b6000601f19601f8301169050919050565b7f4e487b7100000000000000000000000000000000000000000000000000000000600052604160045260246000fd5b6103e68261039d565b810181811067ffffffffffffffff82111715610405576104046103ae565b5b80604052505050565b600061041861037f565b905061042482826103dd565b919050565b600067ffffffffffffffff821115610444576104436103ae565b5b61044d8261039d565b9050602081019050919050565b82818337600083830152505050565b600061047c61047784610429565b61040e565b90508281526020810184848401111561049857610497610398565b5b6104a384828561045a565b509392505050565b600082601f8301126104c0576104bf610393565b5b81356104d0848260208601610469565b91505092915050565b600073ffffffffffffffffffffffffffffffffffffffff82169050919050565b6000610504826104d9565b9050919050565b610514816104f9565b811461051f57600080fd5b50565b6000813590506105318161050b565b92915050565b6000806040838503121561054e5761054d610389565b5b600083013567ffffffffffffffff81111561056c5761056b61038e565b5b610578858286016104ab565b925050602061058985828601610522565b9150509250929050565b6000602082840312156105a9576105a8610389565b5b600082013567ffffffffffffffff8111156105c7576105c661038e565b5b6105d3848285016104ab565b91505092915050565b600081519050919050565b600082825260208201905092915050565b60005b838110156106165780820151818401526020810190506105fb565b60008484015250505050565b600061062d826105dc565b61063781856105e7565b93506106478185602086016105f8565b6106508161039d565b840191505092915050565b610664816104f9565b82525050565b600060408201905081810360008301526106848185610622565b9050610693602083018461065b565b9392505050565b600081905092915050565b60006106b0826105dc565b6106ba818561069a565b93506106ca8185602086016105f8565b80840191505092915050565b60006106e282846106a5565b915081905092915050565b7f4e487b7100000000000000000000000000000000000000000000000000000000600052602260045260246000fd5b6000600282049050600182168061073457607f821691505b602082108103610747576107466106ed565b5b50919050565b60008190508160005260206000209050919050565b60006020601f8301049050919050565b600082821b905092915050565b6000600883026107af7fffffffffffffffffffffffffffffffffffffffffffffffffffffffffffffffff82610772565b6107b98683610772565b95508019841693508086168417925050509392505050565b6000819050919050565b6000819050919050565b60006108006107fb6107f6846107d1565b6107db565b6107d1565b9050919050565b6000819050919050565b61081a836107e5565b61082e61082682610807565b84845461077f565b825550505050565b600090565b610843610836565b61084e818484610811565b505050565b5b818110156108725761086760008261083b565b600181019050610854565b5050565b601f8211156108b7576108888161074d565b61089184610762565b810160208510156108a0578190505b6108b46108ac85610762565b830182610853565b50505b505050565b600082821c905092915050565b60006108da600019846008026108bc565b1980831691505092915050565b60006108f383836108c9565b9150826002028217905092915050565b61090c826105dc565b67ffffffffffffffff811115610925576109246103ae565b5b61092f825461071c565b61093a828285610876565b600060209050601f83116001811461096d576000841561095b578287015190505b61096585826108e7565b8655506109cd565b601f19841661097b8661074d565b60005b828110156109a35784890151825560018201915060208501945060208101905061097e565b868310156109c057848901516109bc601f8916826108c9565b8355505b6001600288020188555050505b50505050505056fea2646970667358221220029910002db15192fa3866ae5e098a172ff79fd1ae42127cc76f2e381da716ad64736f6c634300081c0033",
  "linkReferences": {},
  "deployedLinkReferences": {}
}