{
  "_format": "hh-sol-artifact-1",
  "contractName": "PatientDataAccess",
  "sourceName": "contracts/medicalPermission.sol",
  "abi": [
    {
      "anonymous": false,
      "inputs": [
        {
          "indexed": true,
          "internalType": "address",
          "name": "patient",
          "type": "address"
        },
        {
          "indexed": true,
          "internalType": "address",
          "name": "doctor",
          "type": "address"
        }
      ],
      "name": "DoctorAuthorized",
      "type": "event"
    },
    {
      "anonymous": false,
      "inputs": [
        {
          "indexed": true,
          "internalType": "address",
          "name": "patient",
          "type": "address"
        },
        {
          "indexed": true,
          "internalType": "address",
          "name": "doctor",
          "type": "address"
        }
      ],
      "name": "DoctorRevoked",
      "type": "event"
    },
    {
      "inputs": [
        {
          "internalType": "address",
          "name": "doctorAddress",
          "type": "address"
        }
      ],
      "name": "authorizeDoctor",
      "outputs": [],
      "stateMutability": "nonpayable",
      "type": "function"
    },
    {
      "inputs": [
        {
          "internalType": "address",
          "name": "doctorAddress",
          "type": "address"
        },
        {
          "internalType": "address",
          "name": "patientAddress",
          "type": "address"
        }
      ],
      "name": "checkAccess",
      "outputs": [
        {
          "internalType": "bool",
          "name": "",
          "type": "bool"
        }
      ],
      "stateMutability": "view",
      "type": "function"
    },
    {
      "inputs": [
        {
          "internalType": "address",
          "name": "",
          "type": "address"
        },
        {
          "internalType": "address",
          "name": "",
          "type": "address"
        }
      ],
      "name": "patientAuthorizations",
      "outputs": [
        {
          "internalType": "bool",
          "name": "",
          "type": "bool"
        }
      ],
      "stateMutability": "view",
      "type": "function"
    },
    {
      "inputs": [
        {
          "internalType": "address",
          "name": "doctorAddress",
          "type": "address"
        }
      ],
      "name": "revokeDoctor",
      "outputs": [],
      "stateMutability": "nonpayable",
      "type": "function"
    }
  ],
  "bytecode": "0x6080604052348015600f57600080fd5b506104c98061001f6000396000f3fe608060405234801561001057600080fd5b506004361061004c5760003560e01c80630416af271461005157806358c9202c1461006d57806362e1f7451461008957806375dcb667146100b9575b600080fd5b61006b600480360381019061006691906103f0565b6100e9565b005b610087600480360381019061008291906103f0565b6101da565b005b6100a3600480360381019061009e919061041d565b6102cb565b6040516100b09190610478565b60405180910390f35b6100d360048036038101906100ce919061041d565b61035e565b6040516100e09190610478565b60405180910390f35b60008060003373ffffffffffffffffffffffffffffffffffffffff1673ffffffffffffffffffffffffffffffffffffffff16815260200190815260200160002060008373ffffffffffffffffffffffffffffffffffffffff1673ffffffffffffffffffffffffffffffffffffffff16815260200190815260200160002060006101000a81548160ff0219169083151502179055508073ffffffffffffffffffffffffffffffffffffffff163373ffffffffffffffffffffffffffffffffffffffff167f22e403d2e970c47bf0c5435d7205c5c4a749bed24f61717475622bb9886fb48a60405160405180910390a350565b60016000803373ffffffffffffffffffffffffffffffffffffffff1673ffffffffffffffffffffffffffffffffffffffff16815260200190815260200160002060008373ffffffffffffffffffffffffffffffffffffffff1673ffffffffffffffffffffffffffffffffffffffff16815260200190815260200160002060006101000a81548160ff0219169083151502179055508073ffffffffffffffffffffffffffffffffffffffff163373ffffffffffffffffffffffffffffffffffffffff167fc3255872421c54a1c27c56c4517b663cfbf7024ebaf3b96a1b3edd4f1a41c39e60405160405180910390a350565b60008060008373ffffffffffffffffffffffffffffffffffffffff1673ffffffffffffffffffffffffffffffffffffffff16815260200190815260200160002060008473ffffffffffffffffffffffffffffffffffffffff1673ffffffffffffffffffffffffffffffffffffffff16815260200190815260200160002060009054906101000a900460ff16905092915050565b60006020528160005260406000206020528060005260406000206000915091509054906101000a900460ff1681565b600080fd5b600073ffffffffffffffffffffffffffffffffffffffff82169050919050565b60006103bd82610392565b9050919050565b6103cd816103b2565b81146103d857600080fd5b50565b6000813590506103ea816103c4565b92915050565b6000602082840312156104065761040561038d565b5b6000610414848285016103db565b91505092915050565b600080604083850312156104345761043361038d565b5b6000610442858286016103db565b9250506020610453858286016103db565b9150509250929050565b60008115159050919050565b6104728161045d565b82525050565b600060208201905061048d6000830184610469565b9291505056fea264697066735822122046a87f625de6c6e4c72dfe313843c0999a8aa65dab1c5980b23f919e3ff8615764736f6c634300081c0033",
  "linkReferences": {},
  "deployedLinkReferences": {}
}