{
  "_format": "hh-sol-artifact-1",
  "contractName": "VaccinationRecord",
  "sourceName": "contracts/VaccinationRecord.sol",
  "abi": [
    {
      "inputs": [
        {
          "internalType": "address",
          "name": "userAddress",
          "type": "address"
        }
      ],
      "name": "getPatientVaccineProfile",
      "outputs": [
        {
          "internalType": "string",
          "name": "",
          "type": "string"
        }
      ],
      "stateMutability": "view",
      "type": "function"
    },
    {
      "inputs": [
        {
          "internalType": "address",
          "name": "",
          "type": "address"
        }
      ],
      "name": "profiles",
      "outputs": [
        {
          "internalType": "string",
          "name": "",
          "type": "string"
        }
      ],
      "stateMutability": "view",
      "type": "function"
    },
    {
      "inputs": [
        {
          "internalType": "address",
          "name": "userAddress",
          "type": "address"
        },
        {
          "internalType": "string",
          "name": "documentHash",
          "type": "string"
        }
      ],
      "name": "storePatientVaccineProfile",
      "outputs": [],
      "stateMutability": "nonpayable",
      "type": "function"
    }
  ],
  "bytecode": "0x6080604052348015600f57600080fd5b506108828061001f6000396000f3fe608060405234801561001057600080fd5b50600436106100415760003560e01c8063bbe1562714610046578063d2b023be14610076578063e52be84314610092575b600080fd5b610060600480360381019061005b91906102f4565b6100c2565b60405161006d91906103b1565b60405180910390f35b610090600480360381019061008b9190610508565b610162565b005b6100ac60048036038101906100a791906102f4565b6101b2565b6040516100b991906103b1565b60405180910390f35b600060205280600052604060002060009150905080546100e190610593565b80601f016020809104026020016040519081016040528092919081815260200182805461010d90610593565b801561015a5780601f1061012f5761010080835404028352916020019161015a565b820191906000526020600020905b81548152906001019060200180831161013d57829003601f168201915b505050505081565b806000808473ffffffffffffffffffffffffffffffffffffffff1673ffffffffffffffffffffffffffffffffffffffff16815260200190815260200160002090816101ad919061077a565b505050565b60606000808373ffffffffffffffffffffffffffffffffffffffff1673ffffffffffffffffffffffffffffffffffffffff16815260200190815260200160002080546101fd90610593565b80601f016020809104026020016040519081016040528092919081815260200182805461022990610593565b80156102765780601f1061024b57610100808354040283529160200191610276565b820191906000526020600020905b81548152906001019060200180831161025957829003601f168201915b50505050509050919050565b6000604051905090565b600080fd5b600080fd5b600073ffffffffffffffffffffffffffffffffffffffff82169050919050565b60006102c182610296565b9050919050565b6102d1816102b6565b81146102dc57600080fd5b50565b6000813590506102ee816102c8565b92915050565b60006020828403121561030a5761030961028c565b5b6000610318848285016102df565b91505092915050565b600081519050919050565b600082825260208201905092915050565b60005b8381101561035b578082015181840152602081019050610340565b60008484015250505050565b6000601f19601f8301169050919050565b600061038382610321565b61038d818561032c565b935061039d81856020860161033d565b6103a681610367565b840191505092915050565b600060208201905081810360008301526103cb8184610378565b905092915050565b600080fd5b600080fd5b7f4e487b7100000000000000000000000000000000000000000000000000000000600052604160045260246000fd5b61041582610367565b810181811067ffffffffffffffff82111715610434576104336103dd565b5b80604052505050565b6000610447610282565b9050610453828261040c565b919050565b600067ffffffffffffffff821115610473576104726103dd565b5b61047c82610367565b9050602081019050919050565b82818337600083830152505050565b60006104ab6104a684610458565b61043d565b9050828152602081018484840111156104c7576104c66103d8565b5b6104d2848285610489565b509392505050565b600082601f8301126104ef576104ee6103d3565b5b81356104ff848260208601610498565b91505092915050565b6000806040838503121561051f5761051e61028c565b5b600061052d858286016102df565b925050602083013567ffffffffffffffff81111561054e5761054d610291565b5b61055a858286016104da565b9150509250929050565b7f4e487b7100000000000000000000000000000000000000000000000000000000600052602260045260246000fd5b600060028204905060018216806105ab57607f821691505b6020821081036105be576105bd610564565b5b50919050565b60008190508160005260206000209050919050565b60006020601f8301049050919050565b600082821b905092915050565b6000600883026106267fffffffffffffffffffffffffffffffffffffffffffffffffffffffffffffffff826105e9565b61063086836105e9565b95508019841693508086168417925050509392505050565b6000819050919050565b6000819050919050565b600061067761067261066d84610648565b610652565b610648565b9050919050565b6000819050919050565b6106918361065c565b6106a561069d8261067e565b8484546105f6565b825550505050565b600090565b6106ba6106ad565b6106c5818484610688565b505050565b5b818110156106e9576106de6000826106b2565b6001810190506106cb565b5050565b601f82111561072e576106ff816105c4565b610708846105d9565b81016020851015610717578190505b61072b610723856105d9565b8301826106ca565b50505b505050565b600082821c905092915050565b600061075160001984600802610733565b1980831691505092915050565b600061076a8383610740565b9150826002028217905092915050565b61078382610321565b67ffffffffffffffff81111561079c5761079b6103dd565b5b6107a68254610593565b6107b18282856106ed565b600060209050601f8311600181146107e457600084156107d2578287015190505b6107dc858261075e565b865550610844565b601f1984166107f2866105c4565b60005b8281101561081a578489015182556001820191506020850194506020810190506107f5565b868310156108375784890151610833601f891682610740565b8355505b6001600288020188555050505b50505050505056fea2646970667358221220a08107674206b205b40780c70027096a4e2eaf1f534171d9be9eb5d28fb5c4a964736f6c634300081c0033",
  "linkReferences": {},
  "deployedLinkReferences": {}
}