{
  "_format": "hh-sol-artifact-1",
  "contractName": "VaccinationRecord",
  "sourceName": "contracts/VaccinationRecord.sol",
  "abi": [
    {
      "inputs": [
        {
          "internalType": "address",
          "name": "userAddress",
          "type": "address"
        }
      ],
      "name": "getProfile",
      "outputs": [
        {
          "internalType": "string",
          "name": "",
          "type": "string"
        }
      ],
      "stateMutability": "view",
      "type": "function"
    },
    {
      "inputs": [
        {
          "internalType": "address",
          "name": "",
          "type": "address"
        }
      ],
      "name": "profiles",
      "outputs": [
        {
          "internalType": "string",
          "name": "",
          "type": "string"
        }
      ],
      "stateMutability": "view",
      "type": "function"
    },
    {
      "inputs": [
        {
          "internalType": "address",
          "name": "userAddress",
          "type": "address"
        },
        {
          "internalType": "string",
          "name": "documentHash",
          "type": "string"
        }
      ],
      "name": "storeProfile",
      "outputs": [],
      "stateMutability": "nonpayable",
      "type": "function"
    }
  ],
  "bytecode": "0x6080604052348015600f57600080fd5b506108828061001f6000396000f3fe608060405234801561001057600080fd5b50600436106100415760003560e01c80630d3bfcf0146100465780630f53a47014610062578063bbe1562714610092575b600080fd5b610060600480360381019061005b919061043a565b6100c2565b005b61007c60048036038101906100779190610496565b610112565b6040516100899190610542565b60405180910390f35b6100ac60048036038101906100a79190610496565b6101e2565b6040516100b99190610542565b60405180910390f35b806000808473ffffffffffffffffffffffffffffffffffffffff1673ffffffffffffffffffffffffffffffffffffffff168152602001908152602001600020908161010d919061077a565b505050565b60606000808373ffffffffffffffffffffffffffffffffffffffff1673ffffffffffffffffffffffffffffffffffffffff168152602001908152602001600020805461015d90610593565b80601f016020809104026020016040519081016040528092919081815260200182805461018990610593565b80156101d65780601f106101ab576101008083540402835291602001916101d6565b820191906000526020600020905b8154815290600101906020018083116101b957829003601f168201915b50505050509050919050565b6000602052806000526040600020600091509050805461020190610593565b80601f016020809104026020016040519081016040528092919081815260200182805461022d90610593565b801561027a5780601f1061024f5761010080835404028352916020019161027a565b820191906000526020600020905b81548152906001019060200180831161025d57829003601f168201915b505050505081565b6000604051905090565b600080fd5b600080fd5b600073ffffffffffffffffffffffffffffffffffffffff82169050919050565b60006102c182610296565b9050919050565b6102d1816102b6565b81146102dc57600080fd5b50565b6000813590506102ee816102c8565b92915050565b600080fd5b600080fd5b6000601f19601f8301169050919050565b7f4e487b7100000000000000000000000000000000000000000000000000000000600052604160045260246000fd5b610347826102fe565b810181811067ffffffffffffffff821117156103665761036561030f565b5b80604052505050565b6000610379610282565b9050610385828261033e565b919050565b600067ffffffffffffffff8211156103a5576103a461030f565b5b6103ae826102fe565b9050602081019050919050565b82818337600083830152505050565b60006103dd6103d88461038a565b61036f565b9050828152602081018484840111156103f9576103f86102f9565b5b6104048482856103bb565b509392505050565b600082601f830112610421576104206102f4565b5b81356104318482602086016103ca565b91505092915050565b600080604083850312156104515761045061028c565b5b600061045f858286016102df565b925050602083013567ffffffffffffffff8111156104805761047f610291565b5b61048c8582860161040c565b9150509250929050565b6000602082840312156104ac576104ab61028c565b5b60006104ba848285016102df565b91505092915050565b600081519050919050565b600082825260208201905092915050565b60005b838110156104fd5780820151818401526020810190506104e2565b60008484015250505050565b6000610514826104c3565b61051e81856104ce565b935061052e8185602086016104df565b610537816102fe565b840191505092915050565b6000602082019050818103600083015261055c8184610509565b905092915050565b7f4e487b7100000000000000000000000000000000000000000000000000000000600052602260045260246000fd5b600060028204905060018216806105ab57607f821691505b6020821081036105be576105bd610564565b5b50919050565b60008190508160005260206000209050919050565b60006020601f8301049050919050565b600082821b905092915050565b6000600883026106267fffffffffffffffffffffffffffffffffffffffffffffffffffffffffffffffff826105e9565b61063086836105e9565b95508019841693508086168417925050509392505050565b6000819050919050565b6000819050919050565b600061067761067261066d84610648565b610652565b610648565b9050919050565b6000819050919050565b6106918361065c565b6106a561069d8261067e565b8484546105f6565b825550505050565b600090565b6106ba6106ad565b6106c5818484610688565b505050565b5b818110156106e9576106de6000826106b2565b6001810190506106cb565b5050565b601f82111561072e576106ff816105c4565b610708846105d9565b81016020851015610717578190505b61072b610723856105d9565b8301826106ca565b50505b505050565b600082821c905092915050565b600061075160001984600802610733565b1980831691505092915050565b600061076a8383610740565b9150826002028217905092915050565b610783826104c3565b67ffffffffffffffff81111561079c5761079b61030f565b5b6107a68254610593565b6107b18282856106ed565b600060209050601f8311600181146107e457600084156107d2578287015190505b6107dc858261075e565b865550610844565b601f1984166107f2866105c4565b60005b8281101561081a578489015182556001820191506020850194506020810190506107f5565b868310156108375784890151610833601f891682610740565b8355505b6001600288020188555050505b50505050505056fea2646970667358221220f3bc0198414daf2dcdc5d6915d13eb6b4d9bb3d7fdb64452b3ec0e92ae8a512064736f6c634300081c0033",
  "linkReferences": {},
  "deployedLinkReferences": {}
}