{
  "_format": "hh-sol-artifact-1",
  "contractName": "VaccinationRecord",
  "sourceName": "contracts/VaccinationRecord.sol",
  "abi": [
    {
      "inputs": [
        {
          "internalType": "address",
          "name": "userAddress",
          "type": "address"
        }
      ],
      "name": "getPatientVaccineProfile",
      "outputs": [
        {
          "internalType": "string[]",
          "name": "",
          "type": "string[]"
        }
      ],
      "stateMutability": "view",
      "type": "function"
    },
    {
      "inputs": [
        {
          "internalType": "address",
          "name": "",
          "type": "address"
        },
        {
          "internalType": "uint256",
          "name": "",
          "type": "uint256"
        }
      ],
      "name": "profiles",
      "outputs": [
        {
          "internalType": "string",
          "name": "",
          "type": "string"
        }
      ],
      "stateMutability": "view",
      "type": "function"
    },
    {
      "inputs": [
        {
          "internalType": "address",
          "name": "userAddress",
          "type": "address"
        },
        {
          "internalType": "string",
          "name": "documentHash",
          "type": "string"
        }
      ],
      "name": "storePatientVaccineProfile",
      "outputs": [],
      "stateMutability": "nonpayable",
      "type": "function"
    }
  ],
  "bytecode": "0x6080604052348015600f57600080fd5b50610aa18061001f6000396000f3fe608060405234801561001057600080fd5b50600436106100415760003560e01c80631b2ed49c14610046578063d2b023be14610076578063e52be84314610092575b600080fd5b610060600480360381019061005b91906103af565b6100c2565b60405161006d919061047f565b60405180910390f35b610090600480360381019061008b91906105d6565b61017b565b005b6100ac60048036038101906100a79190610632565b6101f0565b6040516100b9919061076b565b60405180910390f35b600060205281600052604060002081815481106100de57600080fd5b906000526020600020016000915091505080546100fa906107bc565b80601f0160208091040260200160405190810160405280929190818152602001828054610126906107bc565b80156101735780601f1061014857610100808354040283529160200191610173565b820191906000526020600020905b81548152906001019060200180831161015657829003601f168201915b505050505081565b6000808373ffffffffffffffffffffffffffffffffffffffff1673ffffffffffffffffffffffffffffffffffffffff168152602001908152602001600020819080600181540180825580915050600190039060005260206000200160009091909190915090816101eb9190610999565b505050565b60606000808373ffffffffffffffffffffffffffffffffffffffff1673ffffffffffffffffffffffffffffffffffffffff168152602001908152602001600020805480602002602001604051908101604052809291908181526020016000905b828210156102fc57838290600052602060002001805461026f906107bc565b80601f016020809104026020016040519081016040528092919081815260200182805461029b906107bc565b80156102e85780601f106102bd576101008083540402835291602001916102e8565b820191906000526020600020905b8154815290600101906020018083116102cb57829003601f168201915b505050505081526020019060010190610250565b505050509050919050565b6000604051905090565b600080fd5b600080fd5b600073ffffffffffffffffffffffffffffffffffffffff82169050919050565b60006103468261031b565b9050919050565b6103568161033b565b811461036157600080fd5b50565b6000813590506103738161034d565b92915050565b6000819050919050565b61038c81610379565b811461039757600080fd5b50565b6000813590506103a981610383565b92915050565b600080604083850312156103c6576103c5610311565b5b60006103d485828601610364565b92505060206103e58582860161039a565b9150509250929050565b600081519050919050565b600082825260208201905092915050565b60005b8381101561042957808201518184015260208101905061040e565b60008484015250505050565b6000601f19601f8301169050919050565b6000610451826103ef565b61045b81856103fa565b935061046b81856020860161040b565b61047481610435565b840191505092915050565b600060208201905081810360008301526104998184610446565b905092915050565b600080fd5b600080fd5b7f4e487b7100000000000000000000000000000000000000000000000000000000600052604160045260246000fd5b6104e382610435565b810181811067ffffffffffffffff82111715610502576105016104ab565b5b80604052505050565b6000610515610307565b905061052182826104da565b919050565b600067ffffffffffffffff821115610541576105406104ab565b5b61054a82610435565b9050602081019050919050565b82818337600083830152505050565b600061057961057484610526565b61050b565b905082815260208101848484011115610595576105946104a6565b5b6105a0848285610557565b509392505050565b600082601f8301126105bd576105bc6104a1565b5b81356105cd848260208601610566565b91505092915050565b600080604083850312156105ed576105ec610311565b5b60006105fb85828601610364565b925050602083013567ffffffffffffffff81111561061c5761061b610316565b5b610628858286016105a8565b9150509250929050565b60006020828403121561064857610647610311565b5b600061065684828501610364565b91505092915050565b600081519050919050565b600082825260208201905092915050565b6000819050602082019050919050565b600082825260208201905092915050565b60006106a7826103ef565b6106b1818561068b565b93506106c181856020860161040b565b6106ca81610435565b840191505092915050565b60006106e1838361069c565b905092915050565b6000602082019050919050565b60006107018261065f565b61070b818561066a565b93508360208202850161071d8561067b565b8060005b85811015610759578484038952815161073a85826106d5565b9450610745836106e9565b925060208a01995050600181019050610721565b50829750879550505050505092915050565b6000602082019050818103600083015261078581846106f6565b905092915050565b7f4e487b7100000000000000000000000000000000000000000000000000000000600052602260045260246000fd5b600060028204905060018216806107d457607f821691505b6020821081036107e7576107e661078d565b5b50919050565b60008190508160005260206000209050919050565b60006020601f8301049050919050565b600082821b905092915050565b60006008830261084f7fffffffffffffffffffffffffffffffffffffffffffffffffffffffffffffffff82610812565b6108598683610812565b95508019841693508086168417925050509392505050565b6000819050919050565b600061089661089161088c84610379565b610871565b610379565b9050919050565b6000819050919050565b6108b08361087b565b6108c46108bc8261089d565b84845461081f565b825550505050565b600090565b6108d96108cc565b6108e48184846108a7565b505050565b5b81811015610908576108fd6000826108d1565b6001810190506108ea565b5050565b601f82111561094d5761091e816107ed565b61092784610802565b81016020851015610936578190505b61094a61094285610802565b8301826108e9565b50505b505050565b600082821c905092915050565b600061097060001984600802610952565b1980831691505092915050565b6000610989838361095f565b9150826002028217905092915050565b6109a2826103ef565b67ffffffffffffffff8111156109bb576109ba6104ab565b5b6109c582546107bc565b6109d082828561090c565b600060209050601f831160018114610a0357600084156109f1578287015190505b6109fb858261097d565b865550610a63565b601f198416610a11866107ed565b60005b82811015610a3957848901518255600182019150602085019450602081019050610a14565b86831015610a565784890151610a52601f89168261095f565b8355505b6001600288020188555050505b50505050505056fea2646970667358221220320a46856f08a5c9c159fd535b143867ec79115b3aabce0caf40bbfaacf1c39164736f6c634300081c0033",
  "linkReferences": {},
  "deployedLinkReferences": {}
}